{
  "_format": "hh-sol-artifact-1",
  "contractName": "Rent",
  "sourceName": "contracts/Rent.sol",
  "abi": [
    {
      "anonymous": false,
      "inputs": [
        {
          "indexed": false,
          "internalType": "address",
          "name": "from",
          "type": "address"
        },
        {
          "indexed": false,
          "internalType": "address",
          "name": "to",
          "type": "address"
        },
        {
          "indexed": false,
          "internalType": "uint256",
          "name": "amount",
          "type": "uint256"
        },
        {
          "indexed": false,
          "internalType": "string",
          "name": "assetName",
          "type": "string"
        },
        {
          "indexed": false,
          "internalType": "string",
          "name": "assetAddress",
          "type": "string"
        },
        {
          "indexed": false,
          "internalType": "uint256",
          "name": "timestamp",
          "type": "uint256"
        },
        {
          "indexed": false,
          "internalType": "string",
          "name": "startDate",
          "type": "string"
        },
        {
          "indexed": false,
          "internalType": "string",
          "name": "endDate",
          "type": "string"
        },
        {
          "indexed": false,
          "internalType": "bool",
          "name": "rentee",
          "type": "bool"
        }
      ],
      "name": "Renting",
      "type": "event"
    },
    {
      "inputs": [
        {
          "internalType": "address payable",
          "name": "to",
          "type": "address"
        },
        {
          "internalType": "uint256",
          "name": "amount",
          "type": "uint256"
        },
        {
          "internalType": "string",
          "name": "assetName",
          "type": "string"
        },
        {
          "internalType": "string",
          "name": "assetAddress",
          "type": "string"
        },
        {
          "internalType": "string",
          "name": "startDate",
          "type": "string"
        },
        {
          "internalType": "string",
          "name": "endDate",
          "type": "string"
        },
        {
          "internalType": "bool",
          "name": "rentee",
          "type": "bool"
        }
      ],
      "name": "addToBlockchain",
      "outputs": [],
      "stateMutability": "nonpayable",
      "type": "function"
    },
    {
      "inputs": [],
      "name": "getAllRentTransactions",
      "outputs": [
        {
          "components": [
            {
              "internalType": "address",
              "name": "from",
              "type": "address"
            },
            {
              "internalType": "address",
              "name": "to",
              "type": "address"
            },
            {
              "internalType": "uint256",
              "name": "amount",
              "type": "uint256"
            },
            {
              "internalType": "string",
              "name": "assetName",
              "type": "string"
            },
            {
              "internalType": "string",
              "name": "assetAddress",
              "type": "string"
            },
            {
              "internalType": "uint256",
              "name": "timestamp",
              "type": "uint256"
            },
            {
              "internalType": "string",
              "name": "startDate",
              "type": "string"
            },
            {
              "internalType": "string",
              "name": "endDate",
              "type": "string"
            },
            {
              "internalType": "bool",
              "name": "rentee",
              "type": "bool"
            }
          ],
          "internalType": "struct Rent.RentStruct[]",
          "name": "",
          "type": "tuple[]"
        }
      ],
      "stateMutability": "view",
      "type": "function"
    },
    {
      "inputs": [],
      "name": "getContractCount",
      "outputs": [
        {
          "internalType": "uint256",
          "name": "",
          "type": "uint256"
        }
      ],
      "stateMutability": "view",
      "type": "function"
    }
  ],
  "bytecode": "0x60806040526000805534801561001457600080fd5b50610efc806100246000396000f3fe608060405234801561001057600080fd5b50600436106100415760003560e01c80639399869d14610046578063a589c4ad14610064578063dd73760b14610082575b600080fd5b61004e61009e565b60405161005b9190610bb4565b60405180910390f35b61006c6100a7565b6040516100799190610b92565b60405180910390f35b61009c600480360381019061009791906107ad565b61042a565b005b60008054905090565b60606001805480602002602001604051908101604052809291908181526020016000905b828210156104215783829060005260206000209060090201604051806101200160405290816000820160009054906101000a900473ffffffffffffffffffffffffffffffffffffffff1673ffffffffffffffffffffffffffffffffffffffff1673ffffffffffffffffffffffffffffffffffffffff1681526020016001820160009054906101000a900473ffffffffffffffffffffffffffffffffffffffff1673ffffffffffffffffffffffffffffffffffffffff1673ffffffffffffffffffffffffffffffffffffffff168152602001600282015481526020016003820180546101b590610d68565b80601f01602080910402602001604051908101604052809291908181526020018280546101e190610d68565b801561022e5780601f106102035761010080835404028352916020019161022e565b820191906000526020600020905b81548152906001019060200180831161021157829003601f168201915b5050505050815260200160048201805461024790610d68565b80601f016020809104026020016040519081016040528092919081815260200182805461027390610d68565b80156102c05780601f10610295576101008083540402835291602001916102c0565b820191906000526020600020905b8154815290600101906020018083116102a357829003601f168201915b50505050508152602001600582015481526020016006820180546102e390610d68565b80601f016020809104026020016040519081016040528092919081815260200182805461030f90610d68565b801561035c5780601f106103315761010080835404028352916020019161035c565b820191906000526020600020905b81548152906001019060200180831161033f57829003601f168201915b5050505050815260200160078201805461037590610d68565b80601f01602080910402602001604051908101604052809291908181526020018280546103a190610d68565b80156103ee5780601f106103c3576101008083540402835291602001916103ee565b820191906000526020600020905b8154815290600101906020018083116103d157829003601f168201915b505050505081526020016008820160009054906101000a900460ff161515151581525050815260200190600101906100cb565b50505050905090565b60008081548092919061043c90610d9a565b919050555060016040518061012001604052803373ffffffffffffffffffffffffffffffffffffffff1681526020018973ffffffffffffffffffffffffffffffffffffffff168152602001888152602001878152602001868152602001428152602001858152602001848152602001831515815250908060018154018082558091505060019003906000526020600020906009020160009091909190915060008201518160000160006101000a81548173ffffffffffffffffffffffffffffffffffffffff021916908373ffffffffffffffffffffffffffffffffffffffff16021790555060208201518160010160006101000a81548173ffffffffffffffffffffffffffffffffffffffff021916908373ffffffffffffffffffffffffffffffffffffffff16021790555060408201518160020155606082015181600301908051906020019061058e929190610663565b5060808201518160040190805190602001906105ab929190610663565b5060a0820151816005015560c08201518160060190805190602001906105d2929190610663565b5060e08201518160070190805190602001906105ef929190610663565b506101008201518160080160006101000a81548160ff02191690831515021790555050507f65aca4ed325e2d11c5f1b57cad057b3bda82860004ce3d44e760cf525fbce58c33888888884289898960405161065299989796959493929190610ae9565b60405180910390a150505050505050565b82805461066f90610d68565b90600052602060002090601f01602090048101928261069157600085556106d8565b82601f106106aa57805160ff19168380011785556106d8565b828001600101855582156106d8579182015b828111156106d75782518255916020019190600101906106bc565b5b5090506106e591906106e9565b5090565b5b808211156107025760008160009055506001016106ea565b5090565b600061071961071484610c00565b610bcf565b90508281526020810184848401111561073157600080fd5b61073c848285610d26565b509392505050565b60008135905061075381610e81565b92915050565b60008135905061076881610e98565b92915050565b600082601f83011261077f57600080fd5b813561078f848260208601610706565b91505092915050565b6000813590506107a781610eaf565b92915050565b600080600080600080600060e0888a0312156107c857600080fd5b60006107d68a828b01610744565b97505060206107e78a828b01610798565b965050604088013567ffffffffffffffff81111561080457600080fd5b6108108a828b0161076e565b955050606088013567ffffffffffffffff81111561082d57600080fd5b6108398a828b0161076e565b945050608088013567ffffffffffffffff81111561085657600080fd5b6108628a828b0161076e565b93505060a088013567ffffffffffffffff81111561087f57600080fd5b61088b8a828b0161076e565b92505060c061089c8a828b01610759565b91505092959891949750929550565b60006108b783836109f1565b905092915050565b6108c881610cf0565b82525050565b6108d781610c96565b82525050565b6108e681610c96565b82525050565b60006108f782610c40565b6109018185610c63565b93508360208202850161091385610c30565b8060005b8581101561094f578484038952815161093085826108ab565b945061093b83610c56565b925060208a01995050600181019050610917565b50829750879550505050505092915050565b61096a81610cba565b82525050565b61097981610cba565b82525050565b600061098a82610c4b565b6109948185610c74565b93506109a4818560208601610d35565b6109ad81610e70565b840191505092915050565b60006109c382610c4b565b6109cd8185610c85565b93506109dd818560208601610d35565b6109e681610e70565b840191505092915050565b600061012083016000830151610a0a60008601826108ce565b506020830151610a1d60208601826108ce565b506040830151610a306040860182610acb565b5060608301518482036060860152610a48828261097f565b91505060808301518482036080860152610a62828261097f565b91505060a0830151610a7760a0860182610acb565b5060c083015184820360c0860152610a8f828261097f565b91505060e083015184820360e0860152610aa9828261097f565b915050610100830151610ac0610100860182610961565b508091505092915050565b610ad481610ce6565b82525050565b610ae381610ce6565b82525050565b600061012082019050610aff600083018c6108dd565b610b0c602083018b6108bf565b610b19604083018a610ada565b8181036060830152610b2b81896109b8565b90508181036080830152610b3f81886109b8565b9050610b4e60a0830187610ada565b81810360c0830152610b6081866109b8565b905081810360e0830152610b7481856109b8565b9050610b84610100830184610970565b9a9950505050505050505050565b60006020820190508181036000830152610bac81846108ec565b905092915050565b6000602082019050610bc96000830184610ada565b92915050565b6000604051905081810181811067ffffffffffffffff82111715610bf657610bf5610e41565b5b8060405250919050565b600067ffffffffffffffff821115610c1b57610c1a610e41565b5b601f19601f8301169050602081019050919050565b6000819050602082019050919050565b600081519050919050565b600081519050919050565b6000602082019050919050565b600082825260208201905092915050565b600082825260208201905092915050565b600082825260208201905092915050565b6000610ca182610cc6565b9050919050565b6000610cb382610cc6565b9050919050565b60008115159050919050565b600073ffffffffffffffffffffffffffffffffffffffff82169050919050565b6000819050919050565b6000610cfb82610d02565b9050919050565b6000610d0d82610d14565b9050919050565b6000610d1f82610cc6565b9050919050565b82818337600083830152505050565b60005b83811015610d53578082015181840152602081019050610d38565b83811115610d62576000848401525b50505050565b60006002820490506001821680610d8057607f821691505b60208210811415610d9457610d93610e12565b5b50919050565b6000610da582610ce6565b91507fffffffffffffffffffffffffffffffffffffffffffffffffffffffffffffffff821415610dd857610dd7610de3565b5b600182019050919050565b7f4e487b7100000000000000000000000000000000000000000000000000000000600052601160045260246000fd5b7f4e487b7100000000000000000000000000000000000000000000000000000000600052602260045260246000fd5b7f4e487b7100000000000000000000000000000000000000000000000000000000600052604160045260246000fd5b6000601f19601f8301169050919050565b610e8a81610ca8565b8114610e9557600080fd5b50565b610ea181610cba565b8114610eac57600080fd5b50565b610eb881610ce6565b8114610ec357600080fd5b5056fea2646970667358221220d7e75dc2106842afff04c6d631cdf3a77a990d8f150ec4e68459d0e06b14001964736f6c63430008000033",
  "linkReferences": {},
  "deployedLinkReferences": {}
}